:020000040800F2
:10000000B80A0020C9000008C9200008171D000810
:1000100000000000000000000000000000000000E0
:10002000000000000000000000000000CD200008DB
:100030000000000000000000CB200008CF200008D6
:10004000DB00000800000000DB000008DB00000807
:10005000DB000008DB000008DB000008DB00000814
:1000600000000000DB000008DB000008DB000008E7
:10007000DB00000841210008DB0000080000000050
:10008000DB0000080000000000000000DB000008AA
:1000900000000000DB000008DB000008DB000008B7
:1000A00000000000DB00000800000000DB0000088A
:1000B0000448854600F0C2FA00480047312700088E
:1000C000C046C046B80A002004488047044800479C
:1000D000FEE7FEE7FEE7FEE7FEE7FEE73D2100085C
:1000E000B100000830B50B46014600202022012453
:1000F00009E00D46D5409D4205D31D469540491B5C
:100100002546954040191546521E002DF1DC30BDA4
:1001100070B500242546002801DA01244042002958
:1001200001DA01254942FFF7DDFFAC4200D0404231
:10013000002C00D0494270BDF0B51FB40646002027
:1001400082B005464024019100901BE001992246AF
:100150000F46304600F020F8049A059B801A99411A
:1001600010D310461946224600F0B8F9361A8F41CE
:100170000197224601200021009F00F0AFF93818B6
:100180004D4100902046641E0028DFDC019B009852
:100190002946324607B0F0BD10B5202A04DB0846D8
:1001A000203AD040002110BD0B46D340D04020243F
:1001B000A21A91400843194610BD03460B439B0702
:1001C00003D009E008C9121F08C0042AFAD203E0CC
:1001D0000B780370401C491C521EF9D27047D2B2F2
:1001E00001E00270401C491EFBD270470022F6E776
:1001F00010B513460A4604461946FFF7F0FF20469D
:1002000010BDF8B502464A40D40F42004B005208D8
:100210005B089A4202D20246084611464A0023D0A1
:10022000C30D4A00DDB2120EAD1A202D35DA490297
:100230000126490AF6058A19002C00D052422021D5
:100240004F1B1146B9402A411018C20D9A4221D0C5
:10025000002C17D0012D08DCDA05801AD20F801986
:10026000D207DBB200F052F9F8BDDA05801A01239B
:1002700040001B06C01880185A428018CA0F10434D
:10028000490007E04908C2071143DA05801A8019BE
:100290004008801800F032F9F8BD61000122511ABF
:1002A000001BF7E70122D2075140AAE70122D2073B
:1002B0005040A6E7024670B54A40D30FDB07400026
:1002C0002DD04A002AD0010E140E00021202091984
:1002D000400A520A8418E50104465443000A120AEF
:1002E0002E045043A4194219200CC543AA18120C1D
:1002F0000125AD03521C521912047F39240400D089
:10030000521C104301D44000491EC2B20C06C00961
:100310002018401C4008802A02D003E0002070BD55
:1003200040084000002900DA0020184370BD420058
:1003300005D04200120E52428A4201DB0020704773
:10034000C905081870470000F0B50C465C4085B040
:10035000E40FE40703944C00002664085900944617
:10036000490802460296224321D062460A431ED023
:100370006200570D4A000E032303550D0124024667
:100380002C492405781B1B0B360B401823432643AE
:10039000614600901C46501AB44103D30098401C9B
:1003A000009002E0921800985B41002803DA0020D8
:1003B000014605B0F0BD002001210905074686462B
:1003C00011E064461D46141BB54106D36546521B19
:1003D000B341744607430C43A646CD07400849087D
:1003E000284392185B4105460D43EAD11046184355
:1003F00013D06046194650407140084306D060460D
:10040000101AB34106D20122002306E00022012384
:10041000DB0702E00122D243531000987446010525
:10042000381C6141029C039D0019694100F0A7F846
:10043000BFE70000FD030000C217C10F504010B518
:100440004018CA079623002100F060F810BD000094
:100450000EB505490291002100910A460B46019113
:1004600000F09AF803B000BD33040000C20F410051
:1004700040020123400ADB05D207090EC0187F297C
:1004800001DA00207047962903DC9623591AC840E8
:1004900001E096398840002AF4D0404270470000BD
:1004A0004A0009030123090B1B051943094B10B529
:1004B000520D9A4201DA002010BD064B34339A42A5
:1004C00003DC9A1AFFF768FE10BD034951188840F3
:1004D00010BD0000FF030000CDFBFFFF10B5202A78
:1004E00004DB0146203A9140002010BD91402023BA
:1004F0009C1A0346E3401943904010BD002904DADA
:10050000401C490001D140084000704770B40024ED
:10051000050C05D11024000402D1002921D011249A
:10052000050E01D100020834050F01D10001241D80
:10053000850F01D18000A41C002801DB4000641C51
:10054000002908D020252E1B0D46F540A14000D0E3
:1005500001212943084301061B1B000ADB1D02D5AC
:10056000002070BC7047DB05181880180029F8DAE5
:10057000401C4900F5D170BC40084000704710B5E0
:10058000002B08DA0024401C614192185B411A4399
:1005900001D14008400010BDF0B51FB482B005463F
:1005A0000C0003D0084601F049FF02E001F046FFCD
:1005B00020300246009021462846FFF78FFF049B1B
:1005C000059A04460F4618431143084314D01846B1
:1005D00010431BD0009840210A1A18460599FFF7CE
:1005E000DBFD05460E46009A05990498FFF776FF55
:1005F000084305D0012004E02046394607B0F0BD8D
:100600000020C11705430E432C43374300990E9831
:100610006305401A7905E40A00220C43FD0A0A30FA
:1006200002D500200146E9E70105101969410C9C3B
:100630000D9D00196941FFF7A2FFDFE7064C012578
:10064000064E05E0E36807CC2B430C3C984710347A
:10065000B442F7D3FFF730FD54390008743900086D
:1006600070B5044600688168490720D58168102666
:100670004907002905DA8168890702D48168314376
:10068000816000F073FB05460DE000F06FFB401B3E
:10069000022808D9A06B3043A063E06B0121084316
:1006A000E063084670BD206880684007EDD40020F4
:1006B00070BDF8B50446006881688907890F012973
:1006C00028D10168C90702D1C168090422D581680F
:1006D000052211401025012601290FD1816802222F
:1006E0001143816021680320086000F03FFB07464A
:1006F0000CE000F03BFBC01B022807D9A06B28438D
:10070000A063E06B3043E0630120F8BD206880689F
:10071000C007EED10020F8BDF8B5044600200090D7
:10072000206881688907890F012905D10168C907F7
:100730002CD1C168090429D48168154A10261140BA
:100740000125002915D1816829438160124811498A
:100750000068FFF7C7FC00E0401E00900028FBD1B6
:1007600000F004FB07460CE000F000FBC01B022871
:1007700007D9A06B3043A063E06B2843E0630120FE
:10078000F8BD20680068C043C007EDD10020F8BD67
:100790001700008040420F0048000020F8B50025F7
:1007A000044620340095227D012A39D00122227589
:1007B00003689E68760767D4384F4E68BE424DD0B6
:1007C0009E6A0F78BA4016439E620123C26A1B07D5
:1007D0009A421FD0012A1DD0022A1BD0032A19D009
:1007E000042A17D0052A15D0062A13D0072A11D0BB
:1007F00002688B6856697607760FB3420AD0536950
:10080000DB08DB005361006842690B7A5B075B0F12
:100810001A4342610A68102A04D0112A02D038E033
:100820000220F8BD1E488368102A07D001229205D5
:10083000134383600868102803D02AE00122D20500
:10084000F6E7194817490068FFF74CFC0A214843AE
:1008500000E0401E00900028FBD11AE0986A0E7854
:10086000B240904398620968102901D0112910D133
:100870000B488268102904D0012189058A438260CF
:1008800007E00121C905F9E7816B2022114381634B
:100890000125002020752846F8BD00000110000049
:1008A0000027014040420F00480000200068006C13
:1008B00070470000F8B500260446002805D0A06B5C
:1008C00025462035002802D007E00120F8BD002091
:1008D000E0632875204600F0A9F8A06B1022C0063E
:1008E000002870DB2068816849076CD4A16B130174
:1008F000994302231943A16381688907890F01295C
:1009000005D10168C9070FD1C16809040CD4C168B9
:1009100018239943A3681943C1602068016963687B
:1009200089008908194301612068C1683D4B19405D
:10093000C160207E617E8003C9030843A17E4B0312
:100940001843A36A012B02D001231B0300E00023FC
:100950001843E36818432369022B09D00023184386
:100960002B79E57E5B0018430123012D02D00AE0BC
:100970000423F4E7002927D0A16B20252943A16394
:10098000E16B1943E163E1690D46FF3DC23D02D0D1
:10099000256A294308432168CD680543CD600125B8
:1009A000E16A2D07A94213D0012911D002290FD0E5
:1009B00003290DD004290BD0052909D0062907D019
:1009C000072905D010E028E0012109040843DAE7EF
:1009D00021684D69ED08ED004D6121684D69A78DD5
:1009E0007F077F0F3D434D612168C9680E4D294047
:1009F000814207D10020E063A06B80088000401C8A
:100A0000A06308E0A06B022188431043A063E06B61
:100A10001843E06301263046F8BDA06B1043A06385
:100A2000F8E700001902FEFFE7FF3F8310B586B02C
:100A3000044614216846FFF7D9FB10492068884214
:100A400019D10F48826941150A43826182690A40BF
:100A50000592426909020A434261406908400590D3
:100A60000120009003200190002002900920694697
:100A7000C00600F0B5F806B010BD0000002401402B
:100A800000100240F8B504464069254620350E4660
:100A900008280BD02068C068C00709D0A06B2021AF
:100AA0000843A063002028750120F8BD082700E056
:100AB0000C2700F05BF9009011E0701C0FD0002EA5
:100AC00005D000F053F90099401AB04207D9A06B45
:100AD00004210843A063002028750320F8BD206886
:100AE00000683842E9D0A06B012149020843A063A5
:100AF0002068C16809058A0F0C21002A1AD1A27E3C
:100B0000002A17D10268120714D582685307012200
:100B1000002B08DB43688B434360A06B13029843B0
:100B20001043A06306E0A06B20231843A063E06B92
:100B30001043E063207E002801D12068016000207E
:100B4000F8BD000070B50446216800208968490797
:100B500021D425462035297D01291CD00121297564
:100B6000617E012904D02046FFF7D6FD002811D16F
:100B7000A16B0A4A1140FF2201321143A1630021F7
:100B8000E163297522681C21116021688A680423A9
:100B90001A438A6070BD022070BD0000FEF1FFFFA5
:100BA00070B5054604462035287D012807D001266A
:100BB0002E752046FFF754FD002802D00CE00220DD
:100BC00070BD2046FFF775FD002805D1A16BFF22FF
:100BD000013291433143A1630021297570BD0000AA
:100BE000FCB500230124A1E027462A469F403A4055
:100BF00073D04D68012D05D0022D03D0112D01D0E9
:100C0000122D16D185680326AC465D00AE46AE4077
:100C10006546B543AC46CE687546AE4065462E4344
:100C2000866046680D79BE43ED06ED0F9D40354365
:100C30004560C6685F000325BD40AE46AE433546FD
:100C40008E68BE402E43C6604E68022E01D0122E22
:100C500014D1DE08B60036180196366A5D07B44630
:100C6000EE0E0F25B54000966646AE43B4460D69BC
:100C7000009EB54066462E43019D2E62066875466D
:100C8000AE430D79AD07AD0FBD40354305604D68EE
:100C9000ED004AD5284DAE692643AE61AD699E0888
:100CA000ED07ED0F0095254DB6007519AC46AD6802
:100CB0009E07360F0F27B740BD430927FF06B842EE
:100CC00001D1002710E01E4FB84201D101270BE0EF
:100CD0001C4FB84202D1022706E026E01A4FB84264
:100CE00001D1032700E00527B7402F436546AF60D9
:100CF000164E35684F689543FF0300D515433560A0
:100D000075684F689543BF0300D515437560B56896
:100D10004F689543FF0200D51543B560F5684F68ED
:100D20009543BF0200D51543F5605B1C0A68154664
:100D3000DA4000D058E7FCBD00100240000001403E
:100D40000004004800080048000C0048000401406E
:100D50000069084000D001207047426913460B40EB
:100D60001B0491430B438361704700000148806876
:100D7000704700003C00002070B5024640325378B6
:100D8000202B1CD11378012B19D00123137024249C
:100D90005470046825689D432560046825681E0317
:100DA000B5432560046825680D4325600068016827
:100DB00019430160202050700020107070BD022087
:100DC00070BD70B5024640325378202B1BD113788A
:100DD000012B18D0012414702423537003681D685C
:100DE000A5431D6005682B680F263602B343090230
:100DF0001943296000680168214301602020507078
:100E00000020107070BD022070BD000070B504009D
:100E100006D02546403568780026002802D005E037
:100E2000012070BD2E70204600F0F0F8242068707C
:100E3000206801684908490001600F2160680906BF
:100E400088432168086121688A680120C0038243C1
:100E50008A60E1680129A16808D021229202114329
:100E600022689160E168022902D005E00143F7E7BA
:100E700001212268C902516021684A680F4B1A4358
:100E80004A602168CA688243CA6061692069084370
:100E9000A169090208432168C860216AE069084322
:100EA00021680860206801680122114301606664BE
:100EB000202068702663AE70002070BD00800002A4
:100EC000FFB5054604464035687883B0202872D1C6
:100ED0000C98002814D00D98002811D028780128EB
:100EE00069D001202870FFF741FF074601220090DA
:100EF0001923D103204600F09DFF002871D103E0A3
:100F00000120400260646CE0212068704020A870DD
:100F1000002666640C9860620D98608566630E9882
:100F20000090019704A90EC9204600F03FFF002859
:100F300001D02E7055E0608DFF2805D9FF22228553
:100F400001231B06009606E0608D20850096208D0B
:100F50000123C2B25B062046049900F057FF3A46CF
:100F600020460E9900F0B3FF00283AD1606A21684C
:100F700000788862606A401C6062608D401E6085F7
:100F8000208D401E80B22085618D00291FD0002851
:100F90001DD100970022802120460E9B00F04AFFC1
:100FA00000281ED1608DFF2806D9FF22228501234B
:100FB0001B06009607E024E0608D20850096208DBA
:100FC0000123C2B25B062046049900F01FFF608D2A
:100FD0000028C4D13A4620460E9900F052FF00285E
:100FE00002D0012007B0F0BD20682021C161206837
:100FF0004268054B1A4042606970AE702E70002046
:10100000F0E70220EEE7000000E800FE10B586B031
:10101000044614216846FFF7E9F81349206888421E
:1010200020D1124C61690120400401436161616972
:101030000140032005914002009012200190012000
:101040000290032003900420049009206946C00602
:10105000FFF7C6FDE169012040050143E161E16957
:101060000140059106B010BD005400400010024040
:101070000248816802788918816070473C0000202E
:1010800010B506480168102211430160002000F0ED
:1010900007F800F027F8002010BD000000200240F3
:1010A00070B504460D4D7D202978C000FFF71AF871
:1010B00001460B480068FFF715F800F035FB0028E3
:1010C00009D1042C07D200222146401E00F02AF844
:1010D00000206C6070BD012070BD00003C0000204D
:1010E0004800002008B50848816901221143816148
:1010F000816911400091C26901040A43C261C0695B
:101100000840009008BD000000100240002805DBE8
:10111000C106C90E012088400149086070470000DF
:1011200000E100E010B501F0C5F910BDF8B50546C5
:101130000068354CC00352D5E0690026C00007D4D2
:10114000E16920040143E161E16901400126009168
:101150002E480168C90510D4016882151143016049
:10116000FFF704FE074604E0FFF700FEC01B6428FB
:1011700024D826480068C005F6D5206A03273F0218
:10118000384020D06968394081421CD0206A226AE8
:10119000B843012109040A432262226A8A43226277
:1011A0002062C0070FD0FFF7E1FD009008E0FFF7D5
:1011B000DDFD0099411A1648814201D90320F8BD8E
:1011C000206A8007F3D5206A6968B8430843206223
:1011D000002E04D0E169012000078143E1612878F5
:1011E000C00705D0206BA9688008800008432063F1
:1011F0002878800605D5206B10218843E9680843CC
:1012000020630020F8BD0000001002400070004084
:1012100088130000F8B50F46060059D03A4D2868EB
:10122000C007C00FB84209D22868400840003843C0
:1012300028602868C007C00FB84249D13068334CD5
:1012400081070CD5400704D56068072109020843CF
:1012500060606068F0218843B1680843606030785E
:10126000C00726D0706801280ED0216802280ED051
:10127000890700292CDA61688908890001436160C7
:10128000FFF774FD00900DE021688903F1E7890103
:10129000EFE7FFF76BFD0099411A1D48814201D924
:1012A0000320F8BD60680C210840716889008842FD
:1012B000EFD12868C007C00FB8420BD92868400892
:1012C0004000384328602868C007C00FB84201D0EA
:1012D0000120F8BD3078400706D560680721090273
:1012E0008843F1680843606000F018F86168094AB3
:1012F0000906090F515CC840074908600020FFF744
:10130000CFFE0020F8BD0000002002400010024087
:1013100088130000443900084800002010B515A3C8
:101320000FCB88B06C460FC416A30FCB0FC4194A5D
:1013300051680C200B4603401748042B02D0082BA1
:1013400002D0401008B010BD8B021B0F6C46E45C4D
:10135000D26A04AB1207120F9A5CC90305D50023A9
:101360001946FEF7E9FE214601E020460B4901F04F
:101370007CF8E7E702030405060708090A0B0C0DD1
:101380000E0F10100102030405060708090A0B0CD2
:101390000D0E0F10001002400024F40000093D0063
:1013A000FEB5040070D02078DC4DC0074AD06868D4
:1013B0000007800F012807D068680007800F022807
:1013C00009D16868C00306D5286880033AD56068EB
:1013D0000028E7D036E06168012914D0012080049C
:1013E000002901D0052914D02A68012109048A4363
:1013F0002A602968814329606068002816D0FFF7B9
:10140000B5FC06460EE0286801210904084328605F
:10141000F2E7296801432960F5E7FFF7A7FC801B85
:1014200064286ED828688003F7D50BE0FFF79EFC90
:10143000064604E0FFF79AFC801B6428F1D8286870
:101440008003F7D420780126800700283CDA6868FA
:101450000007800F07D068680007800F022809D1B5
:101460006868C00306D42868800716D5E06801289C
:101470000AD112E0E0680028286816D030432860BE
:10148000FFF774FC074605E043E1FFF76FFCC01B64
:101490000228C6D828688007F7D52868F82188432D
:1014A0002169C900084328600EE040084000286018
:1014B000FFF75CFC074604E0FFF758FCC01B02285E
:1014C000AFD828688007F7D42078000722D5E069D4
:1014D0000028686A0ED030436862FFF747FC074671
:1014E00004E0FFF743FCC01B02289AD8686A800713
:1014F000F7D50FE0400840006862FFF737FC074669
:1015000005E09DE0FFF732FCC01B022889D8686A1D
:101510008007F7D4207804274007002860DA0020ED
:101520000190E869C00008D4E969B8060143E9619F
:10153000E969014001200091019079480168C905DD
:1015400011D40168821511430160FFF70FFC009070
:1015500005E0FFF70BFC0099401A642870D870482A
:101560000068C005F5D5A06801280AD0002801D080
:10157000052810D0286A400840002862286AB8432D
:1015800001E0286A30432862A068002812D0FFF7E3
:10159000EDFB00900AE0286A38432862F1E7FFF784
:1015A000E5FB0099411A5F48814249D8286A8007C3
:1015B000F5D50DE0FFF7DAFB009006E0FFF7D6FB6C
:1015C0000099411A574881423AD8286A8007F5D4D1
:1015D0000198002804D0E969012000078143E961EE
:1015E0002078C00635D5606901280CD0401D686B95
:1015F00023D038436863686B400840006863FFF796
:10160000B5FB064622E0686B38436863686B30437D
:101610006863FFF7ABFB064604E0FFF7A7FB801B00
:1016200002285BD8686B8007F7D5686BF821884380
:10163000A169C900084368630BE0B8436863F4E735
:101640004CE0FFF793FB801B022847D8686B8007AC
:10165000F7D4206A00285ED069680907890F02293B
:1016600042D0012636060228286805D0B0432860FB
:10167000FFF77CFB044633E0B0432860FFF776FBBE
:10168000074604E0FFF772FBC01B022826D8286833
:101690008001F7D4E86AE16A000900010843E862C2
:1016A000616AA06A084369683D22120491430843B5
:1016B0006860286830432860FFF758FB044604E060
:1016C000FFF754FB001B022808D828688001F7D5D3
:1016D00021E0FFF74BFB001B022801D90320FEBDD0
:1016E00028688001F5D416E00128F8D06868E96A16
:1016F00001221204636A02409A420AD10907E26A8F
:10170000090F914205D10F2189040840A16A88423E
:1017100001D00120FEBD0020FEBD000000100240EF
:101720000070004088130000094910B5401E88422F
:1017300001D9012010BD074C60610321081F00F092
:10174000B9FE0020A06107202061002010BD00002C
:10175000FFFFFF0000E000E070477047F0B5024671
:101760002032137F012B1BD00126167702235377DB
:1017700005686B68AC687027BB430F681F436F60D8
:101780000068084B984202D0074B984204D180234E
:1017900049689C4321438160567700201077F0BD53
:1017A0000220F0BD002C01400004004070B5040090
:1017B00005D025462035687F002802D006E00120AC
:1017C00070BD00202877204600F00AF802206877D4
:1017D000211D206800F0BCFC01206877002070BD4E
:1017E00008B50068094988420FD109488269C114C7
:1017F0000A438261806900220840009011460D2052
:10180000FFF790FC0D20FFF781FC08BD002C014084
:10181000001002400268D36801210B43D3600068C6
:1018200082685207520F062A02D002680A430260F9
:1018300000207047F8B5054604462035287F01286A
:1018400017D001262E7702206877226890687727C4
:10185000FF23B8431B02984390600A68502A31D096
:101860000EDC202A4BD006DC002A48D0102A3AD1C0
:1018700045E00220F8BD302A41D0402A33D136E07D
:10188000602A27D0702A12D001200003121A2AD011
:10189000824228D1CB684A688968206800F0A1FCA0
:1018A0002068816801229203114381601BE0CB68AC
:1018B0004A688968206800F094FC21688868384389
:1018C000886010E0CA684968206800F07FFD5021F8
:1018D000206806E0CA684968206800F088FD602139
:1018E000206800F089FC6E7700202877F8BDCA6870
:1018F0004968206800F06AFD40212068F1E7114640
:101900002068EEE7704770B504460068016900255D
:10191000C9438907002915DBC168C943890711D468
:10192000E91E016101202077206880698007204638
:1019300002D0FFF7E7FF04E000F0BEF8204600F019
:1019400051F9257720680169C943490717D4C1684F
:10195000C943490713D40421C943016102202077F8
:10196000206880698005800F204602D0FFF7CAFFFB
:1019700004E000F0A1F8204600F034F92577206853
:101980000169C943090716D4C168C943090712D4BC
:101990000821C9430161042020772068C0698007BD
:1019A000204602D0FFF7AEFF04E000F085F82046A5
:1019B00000F018F9257720680169C943C90617D4D2
:1019C000C168C943C90613D41021C9430161082065
:1019D00020772068C0698005800F204602D0FFF77D
:1019E00091FF04E000F068F8204600F0FBF825774E
:1019F00020680169C943C90708D1C168C943C9073B
:101A000004D1891E0161204600F04CF9206801696B
:101A1000C943090609D4C168C943090605D4802110
:101A2000C94301612046FFF797FE20680169C94359
:101A3000490609D4C168C943490605D44021C943B0
:101A40000161204600F066F920680169C9438906F2
:101A500009D4C168C943890605D42021C94301615D
:101A60002046FFF77AFE70BD10B586B004461421FB
:101A70006846FEF7BBFB0E492068884215D10D4829
:101A8000426949130A434261406908400590802039
:101A90000090022001900020029003900120049009
:101AA00009206946C006FFF79BF806B010BD00008C
:101AB00000040040001002407047F8B50646044696
:101AC0002036307F0D4601280DD0012030770220CE
:101AD00070770427002A08D0042A16D0082A2AD0B2
:101AE0000C2A4DD137E00220F8BD206800F08CFBB5
:101AF0002068816908221143816120688169B943A6
:101B00008161206881692A6912E0206800F0B8FBD1
:101B1000206882690121C9020A43826120688169C3
:101B20000122920291438161206881692A6912022F
:101B30001143816124E0206800F0DCFB2068C26969
:101B400008210A43C2612068C169B943C1612068A4
:101B5000C1692A6912E0206800F008FC2068C169A8
:101B60000122D2021143C1612068C26901218902A8
:101B70008A43C2612068C1692A6912021143C161A6
:101B80000120707700203077F8BD70B5040005D0D3
:101B900025462035687F002802D006E0012070BD70
:101BA00000202877204600F00BF802206877211DDE
:101BB000206800F0CDFA01206877002070BD000099
:101BC00008B500680549884207D10548C269022165
:101BD0000A43C261C0690840009008BD000400408B
:101BE000001002407047000010B504460068012252
:101BF00000F0EAFA0D482168814205D00C48814284
:101C000002D00C48814204D1486C0122D203104317
:101C10004864206881684907490F062903D0016894
:101C2000012211430160002010BD0000002C014082
:101C3000004401400048014030B5044600680022DD
:101C400000F0C2FA144A134821689310814205D06B
:101C50001248814202D0124881420AD1086A1042D9
:101C600007D1086A184204D1486C0125ED03A84346
:101C700048642068016A114206D1016A194203D101
:101C80000168490849000160012020346077002084
:101C900030BD0000002C0140111100000044014043
:101CA0000048014010B509204021C006FFF755F853
:101CB000154CE079002801D0401EE071E068401C1E
:101CC000E060A06A401CA0622069401C20611428CA
:101CD00018D90E48FEF736FF64210C48FEF7D2FEF5
:101CE0000A48FEF7E3FD6169094A89005050074838
:101CF000FEF756FF60690021401C60610A2800D38E
:101D00006161216110BD0000100000204C04002022
:101D1000580500207047FEE701688A69D2439207A0
:101D200001D400228A6200688169C943C90703D0CF
:101D3000816901221143816170470000F7B50446B3
:101D400000680E468069C043C0062BD42027254674
:101D5000403520688069C043800612D5701CF8D0D9
:101D6000FFF704F80299401AB04201D8002EF0D1D2
:101D7000606C384360646F700020A8702870012088
:101D8000FEBD21681020C8612068C7612046FFF7AA
:101D9000C3FF20684168044A11404160606C04211F
:101DA0000843E7E70020FEBD00E800FEF8B5044662
:101DB000164615481D46DAB2C3020090079F20461A
:101DC00000F024F83A462046069900F080F80028F2
:101DD00018D12846F5B2012809D02168300A886256
:101DE0003A462046069900F072F800280AD1206889
:101DF00085620097002280212046069B00F01AF899
:101E0000002800D00120F8BD00200080F0B5066851
:101E1000059C7568064F600D384385438805800D25
:101E2000110408431843204305437560F0BD0000CA
:101E3000FF63FF03F8B51D4617460E46044609E04A
:101E4000681C07D0FEF792FF0699401AA8420BD8EB
:101E5000002D09D020688169304688430FD00020CA
:101E6000B842EDD00020F8BD616C202001436164D0
:101E7000403460700020A07020700120F8BD012067
:101E8000EEE770B516460D4604460FE03246294689
:101E90002046FFF753FF002801D0012070BDFEF758
:101EA00065FF801BA84208D8002D06D020688069F5
:101EB000C0438006EAD4002070BD616C202001433D
:101EC0006164403460700020A0702070E5E770B558
:101ED00016460D46044611E0324629462046FFF7D5
:101EE0002DFF002801D0012070BD681C06D0FEF730
:101EF0003DFF801BA84208D8002D06D020688069CD
:101F0000C0438007E8D4002070BD616C20200143ED
:101F10006164403460700020A0702070E3E700002E
:101F20003EB500241249134800940194029412C053
:101F3000046004224460C26001218160047444741E
:101F40008474C474FF22C232846142610246183232
:101F5000147101620838FEF7ADFC01200003019006
:101F600007200290009469460248FEF717FC3EBD28
:101F7000002401404C04002030B587B0142168468D
:101F8000FEF734F913484269012189050A43426189
:101F900042690A400592426949110A434261406917
:101FA0000925084005904020009001200024019060
:101FB000ED060390694602942846FEF711FE3C2088
:101FC00000900194694602942846FEF709FE07B086
:101FD00030BD00000010024010B50D480B490160F3
:101FE0000C494160002181600161416181610122F0
:101FF000C161C2600162FEF709FF00210448FEF7DB
:10200000BBFE00210248FEF7DCFE10BD005400407C
:102010008C0400200E09002010B586B00024009426
:10202000114801940294039404940E4905940160AC
:10203000FF21E13184604160046144616421846175
:10204000C160FFF7B3FB012000030090694606481A
:10205000FFF7F0FB049404A903480594FFF77EFB07
:1020600006B010BD002C0140D804002010B58AB085
:10207000002407941C2168460894FEF7B7F811481D
:102080000F4901600A218460416004616421846118
:10209000C160FFF77AFD079407A90A480894FFF783
:1020A0005DFB602000900194029404226946049430
:1020B0000448FFF702FD0348FFF7D6FC0AB010BD45
:1020C000000400401805002070477047704710B5A5
:1020D000FEF7CEFF10BD30B595B030216846FEF753
:1020E00085F800240F941320009001200D94129481
:1020F000109403900190059010200E941394069074
:1021000004900003099080000C9402250A90119419
:1021100008950B946846FFF743F907200C900E943E
:1021200001210D950F940CA8FFF774F82020109052
:10213000139410A8FEF7FAFF15B030BD70470000E9
:1021400010B50248FFF7DFFB10BD0000D8040020E7
:1021500070B50268174B184E984201D0B04203D1B7
:102160007024A2434C682243144C154D984208D069
:10217000B04206D0134EB04203D0A04201D0A842D4
:1021800004D103263602B243CE6832438026B243DE
:102190004E69324302608A68C2620A68826298426B
:1021A00003D0A04201D0A84201D1096901630121F5
:1021B000416170BD002C014000040040004401401A
:1021C000004801400020004010B5CB06DB0E012185
:1021D000046A99408C430462016A9A401143016287
:1021E00010BD30B58468FF252D021B021343AC439C
:1021F0000B432343836030BD826870239A430A43B4
:1022000007210A4382607047F0B5026A5208520003
:102210000262056A436882697024A24392080C68CE
:1022200092001443022295438A68134E2A43114DAB
:10223000A84204D0B04202D0104FB84206D10827BD
:10224000BA43CF681743042297433A46A84204D0C2
:10225000B04202D0094DA84206D103252D02AB435E
:102260004D691D438B692B43436084614968416319
:102270000262F0BD002C01400044014000480140D2
:1022800070B5026A10239A430262046A4368826945
:1022900073252D02AA430D682D0215432022944375
:1022A0008A6812012243104CA04208D11446CA6821
:1022B0008026B443120122434024A24305E00B4C84
:1022C000A04202D00A4CA04208D10324A402A34396
:1022D0004C69A4001C438B699B00234343608561C8
:1022E00049688163026270BD002C014000440140D6
:1022F0000048014070B5026AFF2301339A4302622D
:10230000046A4368C2697025AA4392080D68920066
:1023100015430122520294438A6812022243104C50
:10232000A04207D1C414A243CC682402224306155C
:10233000B24305E00B4CA04202D00B4CA04208D1A6
:1023400003242403A3434C6924011C438B691B0110
:1023500023434360C5614968C163026270BD0000E8
:10236000002C0140004401400048014030B5026AA1
:1023700001231B039A430262056A4268C3697324FE
:102380002402A3430C6824021C4301235B039D43E6
:102390008B681B032B430A4DA84205D0094DA84268
:1023A00002D0094DA84205D10125AD03AA434D69CC
:1023B000AD012A434260C46149680164036230BDD3
:1023C000002C0140004401400048014030B5036A40
:1023D000046A6408640004628469F025AC43120155
:1023E00022430A24A3430B438261036230BD30B50C
:1023F000036A1024A34303628469036A0F252D0333
:102400001203AC432243A024A34309011943826170
:10241000016230BD0FB410B504A9074B02AA03989E
:1024200000F07AF8044602A9002000F05BF920468B
:1024300010BC08BC04B01847E52600082021020C97
:1024400001D010211046020A01D0104608390209B5
:1024500001D01046091F820801D01046891E42088B
:1024600001D0881E7047081A7047F8B5040C8BB26B
:10247000264682B25E430D0C1046370C5843360494
:1024800080190021794116466E43370C36048019B5
:10249000794126466E438919F8BD30B47446641EEE
:1024A0002578641CAB4200D21D46635D5B00E318D7
:1024B00030BC18478307FF22DB0E9A408907090EBC
:1024C0009940002808DB830809489B001B181868FE
:1024D00090430843186070470007000F08388308CE
:1024E00004489B001B18D86990430843D861704783
:1024F00000E400E000ED00E002E008C8121F08C19F
:10250000002AFAD170477047002001E001C1121F74
:10251000002AFBD170470000FFB58DB00F4605467D
:10252000002606E025280AD0109A0F9990476D1CC6
:10253000761C28780028F5D1304611B0F0BD002473
:102540000121674A009400E004436D1C2B78084683
:10255000203B98401042F7D128782E2815D104202E
:10256000044368786D1C2A280AD101CF6D1C0090A5
:102570000BE000990A225143303940186D1C00903D
:102580002878014630390929F3D92878692843D0B9
:1025900006DC0028D0D063280BD0642804D13BE0AF
:1025A00073280FD075284CD0109A0F999047761C3D
:1025B00094E03878694608720020487202A80190B9
:1025C000012003E0386801900020C0433F1D6107EF
:1025D0000CD5002400E0641C00998C420FDA844280
:1025E000F9DB0199095D0029F5D108E0002400E03C
:1025F000641C8442FCDB0199095D0029F8D136197D
:1026000007E0019801990078491C0191109A0F99EF
:102610009047641EF5D261E00A20019001CF0028A6
:1026200002DA40422D2102E0210504D52B216A4621
:102630001172012103E0E10701D02021F7E70C919D
:1026400004E00A20019001CF00210C910BA90B910D
:1026500008E00199FDF746FD0A460B993032491E04
:102660000B910A700028F4D10B9803A9081A2030A6
:102670000190600701D5009801E0012000900199C8
:10268000884203DD01460198081A00E0002000247A
:10269000009006E002A8109A005D0F999047641C14
:1026A000761C0C988442F5DB04E0109A30200F99D8
:1026B0009047761C0099481E00900029F5DC08E040
:1026C0000B980B990078491C0B91109A0F99904721
:1026D000761C0199481E01900029F1DC6D1C28E749
:1026E000092801000A68531C0B6010707047F8B588
:1026F0000E4687690446C1693846FDF782FD256AA2
:102700002946FDF77EFD206001212846FDF70FFEDA
:10271000014601223846D2075040FDF7C3FDA560AF
:102720006060002E03D00020E06020616061F8BD91
:10273000A8B0FEF7A5FCFFF7CEFCAA481590AA4862
:1027400000271690012117970FA8FFF7D0FFFFF77A
:1027500013FCFFF7E5FBFFF73FFCFFF75DFCFFF71E
:1027600085FCA248FFF756F8A04800214030FFF74B
:102770003BFA0926F6069E4C052540213046FEF719
:10278000ECFA10213046FEF7E3FA207108213046BA
:10279000FEF7DEFA607120213046FEF7D9FAA0710B
:1027A00021796278914206D16179A278914202D171
:1027B000E17888425DD0E57110213046FEF7C8FA15
:1027C000207108213046FEF7C3FA6071202130469F
:1027D000FEF7BEFAA07121796278914200D0E571CE
:1027E00061706179A278914200D0E571A170E178C1
:1027F000884200D0E571E070E0790028DCD12079D2
:102800002246002802D19068401D9060507900282F
:1028100002D19068401F90609079002829D11078EB
:10282000401CC0B21070052801D901201070FF2093
:102830009168C330814201D9906003E0322901D20E
:102840003220F9E710780300FFF727FE061304078C
:102850000A0D1013FF2019300AE0FF202D3007E089
:10286000FF20413004E0FF20693001E0FF2091307B
:102870009060FF20A16A2D30814253DDA168E0699C
:10288000401A0A2803D901210FA8FFF730FFE16998
:10289000A068401A2062FDF7CFFD009013991198AF
:1028A000FDF708FD029012991098FDF703FD0190C5
:1028B00000990F98FDF7FEFC0199FDF7A2FC029923
:1028C000FDF79FFC1499FDF79CFC12991391009958
:1028D00012911490FDF7CAFD46496062884202DDFC
:1028E0000846606202E0002800DA67623F493D2244
:1028F000403118A8FDF761FC3C486030407F20A9BA
:102900004877A08C3B4980B204220C920D910E9026
:1029100030221CA96846FDF750FC18A80FC800F02B
:1029200085F8A762E068322800D826E72F4A002100
:10293000A06980328B00D358491C18180A29F9DB8A
:102940000B21FDF7CFFB2C49A0614843C117090DAE
:1029500008180013FDF77CFD284A294BFDF7F4FC0D
:10296000FDF79EFDE061A168401A00212062084643
:1029700000F0A0F81D4823A1A830A268FFF74AFD87
:102980002348012306C81948A83000F017F913217D
:10299000002000F08FF815481EA1A830E269FFF76B
:1029A00039FD1B48012306C81048A83000F006F97D
:1029B0002821002000F07EF86421606AFDF7A8FB62
:1029C00002460A48252316A1A830FFF723FD104828
:1029D000012306C80548A83000F0F0F800F070F8B0
:1029E000E760CAE600002F4400005041D8040020F0
:1029F0001000002010270000E40C0000EC51B81E6D
:102A000085EB0F405345543A2025642020200000D8
:102A1000000000204143543A20256420202000007B
:102A200044433A2025642563202020000FB470B56C
:102A300088B01C9C0CA821461D9E1E9DFFF7FCF82B
:102A40000CA80F96FFF7A1F86020009000200290DC
:102A500004900195224669460CA8FFF72EF82146FE
:102A60000CA8FFF7C1F808B070BC08BC04B0184748
:102A700070B5802815D2402913D24D0701246D0F5F
:102A80000A4BAC40C9081E79C901094B0818002E31
:102A900002D0002A06D001E0012A03D0195CA1432C
:102AA000195470BD195C2143FAE7000008000020AA
:102AB0004C000020014A108051807047080000201F
:102AC000FEB5002464250E4F80262046B030C0B2EB
:102AD00000F062F8002000F05FF8102000F05CF8D1
:102AE000E001C0190090012340227821019602954F
:102AF0000448FEF7E5F9641CE4B2082CE5D3FEBDFA
:102B00004C0000208C040020FFB581B021486A46AB
:102B10000188177AC919802904D24088567A801909
:102B2000402802D3002005B0F0BD002528E001991F
:102B300030462039484340194000039A0024105A77
:102B400000901AE00098A040000408D51148049AAB
:102B50008178007849190019C9B2C0B20AE0049816
:102B6000002815D000220B488178007849190019F7
:102B7000C9B2C0B2FFF77CFF641CA742E2D86D1C4B
:102B8000AE42D4D803480188C91901800198CAE728
:102B90000122E8E70800002001B584B001210A22E3
:102BA00004A80B460292019100900022782102486D
:102BB000FEF786F905B000BD8C040020F0B51D4677
:102BC0000E46174604460AE02B463A463146FFF7C2
:102BD0009BFF2178884201D0C8B2F0BD641C2078E8
:102BE0000028F1D1C0B2F0BD0000000000000000DC
:102BF00000000000000000000000000000000000D5
:102C00000000000000000000000000000000000CB8
:102C1000000C000C000C000C000C000C000C000C54
:102C2000000C000C0000000C000C00000000000074
:102C30000000001B001B001B001B001B000000000D
:102C40000000000000000000000000000000000084
:102C50000000000000008019801980198019C07FD1
:102C6000C07F80190033C07FC07F00330033003342
:102C700000330000000000000000001E003F8075CF
:102C800080650074003C001E00078005806580653B
:102C90008075003F001E000400040000000000706A
:102CA00000D840D8C0D880D900730006000C801B23
:102CB000C036C066C046C0068003000000000000A9
:102CC0000000001E003F003300330033001E000CE4
:102CD000C03CC066806380618063C03E801C000091
:102CE000000000000000000C000C000C000C000CA8
:102CF00000000000000000000000000000000000D4
:102D00000000000000000000800000010003000639
:102D100000060004000C000C000C000C000C000C61
:102D200000040006000600030001800000200010DF
:102D30000018000C000C0004000600060006000647
:102D4000000600060004000C000C00180010002013
:102D50000000000C002D003F001E003300000000AA
:102D60000000000000000000000000000000000063
:102D700000000000000000000000000C000C000C2F
:102D8000000CC0FFC0FF000C000C000C000C000089
:102D90000000000000000000000000000000000033
:102DA0000000000000000000000000000000000023
:102DB0000000000C000C00040004000800000000EB
:102DC0000000000000000000000000000000001EE5
:102DD000001E0000000000000000000000000000D5
:102DE00000000000000000000000000000000000E3
:102DF00000000000000000000000000C000C0000BB
:102E000000000000000000030003000300060006AD
:102E100000060006000C000C000C000C0018001846
:102E200000180000000000000000001E003F0033FA
:102E3000806180618061806D806D80618061806172
:102E40000033003F001E00000000000000000006EC
:102E5000000E001E003600260006000600060006D2
:102E60000006000600060006000600000000000044
:102E70000000001E003F80738061806180010003BC
:102E80000006000C001800300060807F807F00008A
:102E9000000000000000001C003E0063006300030F
:102EA000000E000E00038001800180618073003FEE
:102EB000001E00000000000000000006000E000ED2
:102EC000001E001E0016003600360066807F807FE0
:102ED0000006000600060000000000000000007F61
:102EE000007F006000600060006E007F80638001F2
:102EF000800180618073003F001E00000000000020
:102F00000000001E003F803380610060006E007F83
:102F100080738061806180618033003F001E00000B
:102F2000000000000000807F807F8001000300031C
:102F300000060006000C000C000C00080018001829
:102F400000180000000000000000001E003F806329
:102F5000806180610021001E003F8061806180618E
:102F60008061003F001E0000000000000000001E05
:102F7000003F00738061806180618073803F801DAD
:102F8000800180610073003F001E0000000000000F
:102F900000000000000000000000000C000C000019
:102FA00000000000000000000000000C000C000009
:102FB0000000000000000000000000000000000011
:102FC000000C000C00000000000000000000000CDD
:102FD000000C0004000400080000000000000000D5
:102FE00080008003000E003800600038000E80036F
:102FF0008000000000000000000000000000000051
:10300000000000000000807F807F00000000807FC3
:10301000807F0000000000000000000000000000B1
:10302000000000000000000000400070001C0007CD
:1030300080010007001C007000400000000000003C
:10304000000000000000001F803FC071C060C00091
:10305000C00180030007000E000C000C0000000CF3
:10306000000C0000000000000000001E003F803146
:1030700080718063806F806D806D806F806700607D
:103080000032003E001C0000000000000000000EA6
:10309000000E001B001B001B001B80318031803F95
:1030A000803F8031C060C060C06000000000000050
:1030B0000000007C007E0063006300630063007E0C
:1030C000007E0063806180618063007F007E00007D
:1030D000000000000000001E003F803180610060A1
:1030E0000060006000600060006080618031003F2F
:1030F000001E0000000000000000007C007F006354
:103100008063806180618061806180618061006333
:103110000063007E007C0000000000000000807F53
:10312000807F0060006000600060007F007F0060C2
:10313000006000600060807F807F00000000000071
:103140000000807F807F0060006000600060007F82
:10315000007F0060006000600060006000600000B0
:10316000000000000000001E003F80318061006010
:103170000060006080638063806180618031803F97
:10318000001E00000000000000008061806180617E
:10319000806180618061807F807F806180618061EB
:1031A0008061806180610000000000000000003F3D
:1031B000003F000C000C000C000C000C000C000C7C
:1031C000000C000C000C003F003F0000000000005D
:1031D0000000800180018001800180018001800168
:1031E00080018001806180618073003F001E0000CB
:1031F000000000000000C06080610063006600669F
:10320000006C0078007C006600660063806180616D
:10321000C06000000000000000000060006000606E
:10322000006000600060006000600060006000609E
:103230000060807F807F0000000000000000C071FF
:10324000C071C07BC07AC06AC06AC06EC064C06012
:10325000C060C060C060C060C060000000000000CE
:10326000000080718071807980798079806D806DB7
:10327000806D806580678067806780638063000001
:10328000000000000000001E003F003380618061EC
:103290008061806180618061806180610033003F76
:1032A000001E0000000000000000007E007F806320
:1032B0008061806180618063007F007E00600060CB
:1032C0000060006000600000000000000000001EC0
:1032D000003F003380618061806180618061806136
:1032E000806580670033803F401E000000000000C2
:1032F0000000007E007F8063806180618063007FCA
:10330000007E00660063006380618061C060000031
:10331000000000000000000E001F803180310030EE
:103320000038001E00078003806180618031003F0B
:10333000001E0000000000000000C0FFC0FF000CE5
:10334000000C000C000C000C000C000C000C000C1D
:10335000000C000C000C0000000000000000806168
:103360008061806180618061806180618061806155
:10337000806180618073003F001E0000000000003B
:103380000000C060C060C060803180318031001BAF
:10339000001B001B001B000E000E000E00040000AE
:1033A000000000000000C0C0C0C0C0C0C0C0C0C09D
:1033B000C0CC804C804C805E805280528073806193
:1033C00080610000000000000000C0C080608061DB
:1033D0000033003B001E000C000C001E001F003BD1
:1033E00080718061C0C00000000000000000C0C00B
:1033F0008061806100330033001E001E000C000C51
:10340000000C000C000C000C000C00000000000080
:103410000000803F803F8001000300030006000C95
:10342000000C0018001800300060807F807F0000D2
:1034300000000000000F000F000C000C000C000C3E
:10344000000C000C000C000C000C000C000C000C1C
:10345000000C000C000F000F0000001800180018EE
:10346000000C000C000C000C000600060006000614
:10347000000300030003000000000000001E001E07
:10348000000600060006000600060006000600060C
:10349000000600060006000600060006001E001ECC
:1034A0000000000C000C001E00120033003380618D
:1034B000806100000000000000000000000000002B
:1034C00000000000000000000000000000000000FC
:1034D00000000000000000000000000000000000EC
:1034E00000000000E0FF0000000000380018000CA1
:1034F00000000000000000000000000000000000CC
:1035000000000000000000000000000000000000BB
:10351000000000000000001F803F80618001801FCC
:10352000803F80618063807FC03800000000000021
:1035300000000060006000600060006E007F80732B
:1035400080618061806180618073007F006E000017
:103550000000000000000000000000000000001E4D
:10356000003F807380610060006080618073003F75
:10357000001E0000000000000000800180018001AA
:103580008001801D803F80738061806180618061E7
:103590008073803F801D00000000000000000000DC
:1035A000000000000000001E003F00738061807F6B
:1035B000807F00608071003F001E0000000000005E
:1035C0000000C007C00F000C000C807F807F000C43
:1035D000000C000C000C000C000C000C000C000097
:1035E000000000000000000000000000801D803F7F
:1035F000807380618061806180618073803F801D05
:1036000080018063007F003E000000600060006079
:103610000060006F807F8071806180618061806167
:1036200080618061806100000000000000000006F1
:10363000000600000000003E003E000600060006F6
:10364000000600060006000600060000000000005C
:103650000006000600000000003E003E00060006D6
:1036600000060006000600060006000600060046EA
:10367000007E003C0000006000600060006080612F
:1036800000630066006C007C00760063006380616C
:10369000C0600000000000000000003E003E000688
:1036A00000060006000600060006000600060006EA
:1036B00000060006000600000000000000000000F8
:1036C00000000000000080DDC0FFC0CEC0CCC0CC38
:1036D000C0CCC0CCC0CCC0CCC0CC0000000000002E
:1036E00000000000000000000000006F807F80717B
:1036F00080618061806180618061806180610000A3
:103700000000000000000000000000000000001E9B
:10371000003F807380618061806180618073003FC1
:10372000001E00000000000000000000000000007B
:10373000006E007F80738061806180618061807332
:10374000007F006E0060006000600060000000000C
:1037500000000000801D803F807380618061806177
:1037600080618073803F801D800180018001800125
:10377000000000000000000000000067803F0039EA
:1037800000300030003000300030003000300000E9
:103790000000000000000000000000000000001E0B
:1037A000803F80610060007F803F80018061007FFA
:1037B000001E0000000000000000000000080018CB
:1037C0000018007F007F001800180018001800186B
:1037D0000018801F800F00000000000000000000A3
:1037E0000000000000008061806180618061806174
:1037F000806180618063807F803D00000000000068
:1038000000000000000000000000C0608031803136
:103810008031001B001B001B000E000E0006000084
:10382000000000000000000000000000000080DD3B
:1038300080DD80DD005500550055007700770022BF
:103840000022000000000000000000000000000056
:103850000000806100330033001E000C000C001ECD
:103860000033003380610000000000000000000011
:103870000000000080618061803100330033001B54
:10388000001B001B000E000E000E001C007C0070D0
:1038900000000000000000000000C07FC07F800129
:1038A00000030006000C00180030C07FC07F00003D
:1038B00000000000800380070006000600060006E6
:1038C0000006000E001C001C000E0006000600068C
:1038D00000060006800780030006000600060006BA
:1038E00000060006000600060006000600060006A8
:1038F0000006000600060006000600060038003C30
:10390000000C000C000C000C000C000E000700075F
:10391000000E000C000C000C000C000C003C0038E9
:1039200000000000000000000000000000008038DF
:10393000807F004700000000000000000000000041
:10394000000000000000000000000000010203046D
:103950000607080974390008000000204C00000028
:10396000F8240008C03900084C0000206C0A000050
:10397000082500080B120000E82B000800000000DA
:103980000000000002000000000000000401000030
:103990000000000000000000000000000000000027
:1039A0000000000000000000000000000000000017
:1039B00001000000040000000000000000127A0076
:04000005080000B13E
:00000001FF
